{
  "_format": "hh-sol-artifact-1",
  "contractName": "Bank",
  "sourceName": "contracts/BankContract.sol",
  "abi": [
    {
      "inputs": [],
      "stateMutability": "nonpayable",
      "type": "constructor"
    },
    {
      "inputs": [],
      "name": "bankName",
      "outputs": [
        {
          "internalType": "string",
          "name": "",
          "type": "string"
        }
      ],
      "stateMutability": "view",
      "type": "function"
    },
    {
      "inputs": [],
      "name": "bankOwner",
      "outputs": [
        {
          "internalType": "address",
          "name": "",
          "type": "address"
        }
      ],
      "stateMutability": "view",
      "type": "function"
    },
    {
      "inputs": [
        {
          "internalType": "address",
          "name": "",
          "type": "address"
        }
      ],
      "name": "customerBalance",
      "outputs": [
        {
          "internalType": "uint256",
          "name": "",
          "type": "uint256"
        }
      ],
      "stateMutability": "view",
      "type": "function"
    },
    {
      "inputs": [],
      "name": "depositMoney",
      "outputs": [],
      "stateMutability": "payable",
      "type": "function"
    },
    {
      "inputs": [],
      "name": "getBankBalance",
      "outputs": [
        {
          "internalType": "uint256",
          "name": "",
          "type": "uint256"
        }
      ],
      "stateMutability": "view",
      "type": "function"
    },
    {
      "inputs": [],
      "name": "getCustomerBalance",
      "outputs": [
        {
          "internalType": "uint256",
          "name": "",
          "type": "uint256"
        }
      ],
      "stateMutability": "view",
      "type": "function"
    },
    {
      "inputs": [
        {
          "internalType": "string",
          "name": "_name",
          "type": "string"
        }
      ],
      "name": "setBankName",
      "outputs": [],
      "stateMutability": "nonpayable",
      "type": "function"
    },
    {
      "inputs": [
        {
          "internalType": "address payable",
          "name": "_to",
          "type": "address"
        },
        {
          "internalType": "uint256",
          "name": "_total",
          "type": "uint256"
        }
      ],
      "name": "withdrawMoney",
      "outputs": [],
      "stateMutability": "nonpayable",
      "type": "function"
    }
  ],
  "bytecode": "0x608060405234801561001057600080fd5b50336000806101000a81548173ffffffffffffffffffffffffffffffffffffffff021916908373ffffffffffffffffffffffffffffffffffffffff160217905550610e81806100606000396000f3fe60806040526004361061007b5760003560e01c80637b83b50b1161004e5780637b83b50b1461011b578063a853409a14610146578063e147aaa714610171578063f274c8971461019c5761007b565b806316c05aa21461008057806327d358011461008a57806337ebe47b146100b557806370142690146100f2575b600080fd5b6100886101c5565b005b34801561009657600080fd5b5061009f610261565b6040516100ac9190610ac2565b60405180910390f35b3480156100c157600080fd5b506100dc60048036038101906100d791906107ac565b6102ef565b6040516100e99190610b84565b60405180910390f35b3480156100fe57600080fd5b5061011960048036038101906101149190610811565b610307565b005b34801561012757600080fd5b506101306103af565b60405161013d9190610b84565b60405180910390f35b34801561015257600080fd5b5061015b610446565b6040516101689190610b84565b60405180910390f35b34801561017d57600080fd5b5061018661048d565b6040516101939190610aa7565b60405180910390f35b3480156101a857600080fd5b506101c360048036038101906101be91906107d5565b6104b1565b005b6000341415610209576040517f08c379a000000000000000000000000000000000000000000000000000000000815260040161020090610b04565b60405180910390fd5b34600260003373ffffffffffffffffffffffffffffffffffffffff1673ffffffffffffffffffffffffffffffffffffffff16815260200190815260200160002060008282546102589190610c1c565b92505081905550565b6001805461026e90610d36565b80601f016020809104026020016040519081016040528092919081815260200182805461029a90610d36565b80156102e75780601f106102bc576101008083540402835291602001916102e7565b820191906000526020600020905b8154815290600101906020018083116102ca57829003601f168201915b505050505081565b60026020528060005260406000206000915090505481565b60008054906101000a900473ffffffffffffffffffffffffffffffffffffffff1673ffffffffffffffffffffffffffffffffffffffff163373ffffffffffffffffffffffffffffffffffffffff1614610395576040517f08c379a000000000000000000000000000000000000000000000000000000000815260040161038c90610b44565b60405180910390fd5b80600190805190602001906103ab929190610662565b5050565b60008060009054906101000a900473ffffffffffffffffffffffffffffffffffffffff1673ffffffffffffffffffffffffffffffffffffffff163373ffffffffffffffffffffffffffffffffffffffff1614610440576040517f08c379a000000000000000000000000000000000000000000000000000000000815260040161043790610b64565b60405180910390fd5b47905090565b6000600260003373ffffffffffffffffffffffffffffffffffffffff1673ffffffffffffffffffffffffffffffffffffffff16815260200190815260200160002054905090565b60008054906101000a900473ffffffffffffffffffffffffffffffffffffffff1681565b60008054906101000a900473ffffffffffffffffffffffffffffffffffffffff1673ffffffffffffffffffffffffffffffffffffffff163373ffffffffffffffffffffffffffffffffffffffff161461053f576040517f08c379a000000000000000000000000000000000000000000000000000000000815260040161053690610b24565b60405180910390fd5b600260003373ffffffffffffffffffffffffffffffffffffffff1673ffffffffffffffffffffffffffffffffffffffff168152602001908152602001600020548111156105c1576040517f08c379a00000000000000000000000000000000000000000000000000000000081526004016105b890610ae4565b60405180910390fd5b80600260003373ffffffffffffffffffffffffffffffffffffffff1673ffffffffffffffffffffffffffffffffffffffff16815260200190815260200160002060008282546106109190610c72565b925050819055508173ffffffffffffffffffffffffffffffffffffffff166108fc829081150290604051600060405180830381858888f1935050505015801561065d573d6000803e3d6000fd5b505050565b82805461066e90610d36565b90600052602060002090601f01602090048101928261069057600085556106d7565b82601f106106a957805160ff19168380011785556106d7565b828001600101855582156106d7579182015b828111156106d65782518255916020019190600101906106bb565b5b5090506106e491906106e8565b5090565b5b808211156107015760008160009055506001016106e9565b5090565b600061071861071384610bd0565b610b9f565b90508281526020810184848401111561073057600080fd5b61073b848285610cf4565b509392505050565b60008135905061075281610e06565b92915050565b60008135905061076781610e1d565b92915050565b600082601f83011261077e57600080fd5b813561078e848260208601610705565b91505092915050565b6000813590506107a681610e34565b92915050565b6000602082840312156107be57600080fd5b60006107cc84828501610743565b91505092915050565b600080604083850312156107e857600080fd5b60006107f685828601610758565b925050602061080785828601610797565b9150509250929050565b60006020828403121561082357600080fd5b600082013567ffffffffffffffff81111561083d57600080fd5b6108498482850161076d565b91505092915050565b61085b81610ca6565b82525050565b600061086c82610c00565b6108768185610c0b565b9350610886818560208601610d03565b61088f81610df5565b840191505092915050565b60006108a7602583610c0b565b91507f596f75206861766520696e7375666669656e742066756e647320746f2077697460008301527f68647261770000000000000000000000000000000000000000000000000000006020830152604082019050919050565b600061090d602983610c0b565b91507f596f75206e65656420746f206465706f73697420736f6d6520616d6f756e742060008301527f6f66206d6f6e65792100000000000000000000000000000000000000000000006020830152604082019050919050565b6000610973602983610c0b565b91507f596f75206d75737420626520746865206f776e657220746f206d616b6520776960008301527f746864726177616c7300000000000000000000000000000000000000000000006020830152604082019050919050565b60006109d9603183610c0b565b91507f596f75206d75737420626520746865206f776e657220746f207365742074686560008301527f206e616d65206f66207468652062616e6b0000000000000000000000000000006020830152604082019050919050565b6000610a3f603683610c0b565b91507f596f75206d75737420626520746865206f776e6572206f66207468652062616e60008301527f6b20746f2073656520616c6c2062616c616e6365732e000000000000000000006020830152604082019050919050565b610aa181610cea565b82525050565b6000602082019050610abc6000830184610852565b92915050565b60006020820190508181036000830152610adc8184610861565b905092915050565b60006020820190508181036000830152610afd8161089a565b9050919050565b60006020820190508181036000830152610b1d81610900565b9050919050565b60006020820190508181036000830152610b3d81610966565b9050919050565b60006020820190508181036000830152610b5d816109cc565b9050919050565b60006020820190508181036000830152610b7d81610a32565b9050919050565b6000602082019050610b996000830184610a98565b92915050565b6000604051905081810181811067ffffffffffffffff82111715610bc657610bc5610dc6565b5b8060405250919050565b600067ffffffffffffffff821115610beb57610bea610dc6565b5b601f19601f8301169050602081019050919050565b600081519050919050565b600082825260208201905092915050565b6000610c2782610cea565b9150610c3283610cea565b9250827fffffffffffffffffffffffffffffffffffffffffffffffffffffffffffffffff03821115610c6757610c66610d68565b5b828201905092915050565b6000610c7d82610cea565b9150610c8883610cea565b925082821015610c9b57610c9a610d68565b5b828203905092915050565b6000610cb182610cca565b9050919050565b6000610cc382610cca565b9050919050565b600073ffffffffffffffffffffffffffffffffffffffff82169050919050565b6000819050919050565b82818337600083830152505050565b60005b83811015610d21578082015181840152602081019050610d06565b83811115610d30576000848401525b50505050565b60006002820490506001821680610d4e57607f821691505b60208210811415610d6257610d61610d97565b5b50919050565b7f4e487b7100000000000000000000000000000000000000000000000000000000600052601160045260246000fd5b7f4e487b7100000000000000000000000000000000000000000000000000000000600052602260045260246000fd5b7f4e487b7100000000000000000000000000000000000000000000000000000000600052604160045260246000fd5b6000601f19601f8301169050919050565b610e0f81610ca6565b8114610e1a57600080fd5b50565b610e2681610cb8565b8114610e3157600080fd5b50565b610e3d81610cea565b8114610e4857600080fd5b5056fea26469706673582212204dc643abd5edb6035a6cb084da015f3f63e770f207c86c4a4c98b6a74af3abef64736f6c63430008000033",
  "linkReferences": {},
  "deployedLinkReferences": {}
}